:10000000D0EF07F00000000000EF00F0000000005B
:0A0010000000000000000000F3D71C
:0A001C00000E80B0010E006E12000D
:100026001DCF01F00F0122A302D02299228901C01F
:0400360000F01200C4
:0A003A00000E82BA010E006E1200E3
:0A004400000E82B6010E006E1200DD
:0A004E00000E82B8010E006E1200D1
:0A005800000EA4BA010E006E1200A3
:0A006200000E86B0010E006E1200C1
:0A006C00000E81B0010E006E1200BC
:0A007600000E82B8010E006E1200A9
:0A008000000E82B2010E006E1200A5
:0A008A00000E84B2010E006E120099
:0A009400000E82B0010E006E120093
:0A009E00000E84B0010E006E120087
:0C00A8005FB002D08B9A01D08B8A12004E
:0C00B4005FB002D08F9001D08F8012004E
:0C00C0005FB002D08A9401D08A84120044
:0C00CC005FB002D08D9401D08D84120032
:0C00D8005FB002D08B9601D08B86120026
:0C00E4005FB002D08B9801D08B88120016
:0C00F0005FB002D08F9401D08F8412000A
:1000FC00AECF01F0ABA202D0AB98AB8801C000F040
:02010C001200DF
:0A010E00000E9EBA010E006E1200F2
:0A011800000EACB2010E006E1200E2
:0C0122005FB002D08F9201D08F821200DB
:0C012E005FB002D08B9601D08B861200CF
:0C013A005FB002D08B9801D08B881200BF
:0A014600000E82BE010E006E1200D2
:0A015000000E82B6010E006E1200D0
:0A015A00000E82B8010E006E1200C4
:0A016400000E82B6010E006E1200BC
:0A016E00000E82BE010E006E1200AA
:0A017800000E80B4010E006E1200AC
:0A018200000E82B6010E006E12009E
:0A018C00000E82B8010E006E120092
:0A019600000E86B4010E006E120088
:0A01A000000E86B2010E006E120080
:0A01AA00000E81B4010E006E120079
:0A01B400000E84B4010E006E12006C
:0A01BE00000E84B6010E006E120060
:0A01C800000E82B4010E006E12005A
:0A01D200000E80B2010E006E120054
:0A01DC00000E80B8010E006E120044
:0A01E600000E82B6010E006E12003A
:0A01F000000E82BC010E006E12002A
:0A01FA00000E82BA010E006E120022
:0C020400000E0F0121B3010E006E12006D
:0A021000000E82B8010E006E12000D
:0A021A00000E82BA010E006E120001
:0A022400000E82BC010E006E1200F5
:0C022E005FB002D08B9801D08B881200CA
:0A023A00000E82B8010E006E1200E3
:0A024400000E82B6010E006E1200DB
:0A024E00000E81B2010E006E1200D6
:0C0258005FB002D08B9A01D08B8A12009C
:0C0264005FB002D08A9001D08A801200A6
:0C0270005FB002D08B9601D08B8612008C
:0C027C005FB002D08B9E01D08B8E120070
:0C0288005FB002D08B9801D08B88120070
:0C0294005FB002D08B9C01D08B8C12005C
:0C02A0005FB002D08B9401D08B84120060
:0E02AC00ACB202D00000FCD75FC0ADFF120064
:0C02BA005FB002D08B9201D08B8212004A
:1002C6000F0121B302D00000FBD75FC01CFF120054
:0C02D6005FB002D08B9801D08B88120022
:0C02E2005FB002D0899001D0898012002A
:0C02EE005FB002D08D9001D08D80120016
:0C02FA005FB002D0899201D0898212000E
:0C0306005FB002D08B9601D08B861200F5
:0C0312005FB002D08B9C01D08B8C1200DD
:0C031E005FB002D08B9E01D08B8E1200CD
:0C032A005FB002D08D9601D08D861200CD
:0C0336005FB002D0899401D089841200CD
:0C0342005FB002D08B9801D08B881200B5
:0C034E005FB002D08A9201D08A821200B7
:0C035A005FB002D08B9001D08B801200AD
:0C0366005FB002D08D9201D08D82120099
:0C0372005FB002D08B9601D08B86120089
:0C037E005FB002D08B9601D08B8612007D
:0C038A005FB002D08B9A01D08B8A120069
:0C0396005FB002D0899801D08988120065
:1003A200F250026EF29E0500FF6A0150FE6E00508E
:0803B200FD6E02BEF28E120086
:1003BA00C60E216E020E226E5F0E236E000E246E92
:1003CA00260E316E000E326E000E336E000E346E43
:1003DA00580E2D6E000E2E6E000E2F6E000E306E11
:1003EA00040E296E020E2A6E000E2B6E000E2C6E63
:1003FA000F01218B900E226F98849892A4AA03D0A1
:08040A001DCF00F0FBD712002A
:10041200AC0E216E020E226E5F0E236E000E246E53
:10042200FC0E316E000E326E000E336E000E346E14
:100432000E0E2D6E010E2E6E000E2F6E000E306E01
:10044200180E296E010E2A6E000E2B6E000E2C6EF7
:10045200AC8A900EAB6E948E949C9EAA03D0AECFC3
:0604620000F0FBD71200C0
:1004680059C0F6FF5AC0F7FF5BC0F8FF0900F5CF87
:1004780039F00900F5CF3AF00900F5CF3BF0090053
:10048800F5CF3CF0040E5924F66E000E5A20F76E94
:10049800000E5B20F86E0900F5CF35F00900F5CFA6
:1004A80036F00900F5CF37F00900F5CF38F0080E1F
:1004B8005924F66E000E5A20F76E000E5B20F86E77
:1004C8000900F5CF45F00900F5CF46F00900F5CF52
:0A04D80047F00900F5CF48F01200CC
:0604E200050E006E120081
:1004E80021D0CF0EAF6EAC9490DF6AD0670EAF6E9E
:1004F800AC948BDF65D0CF0EAF6EAC8486DF60D056
:10050800670EAF6EAC8481DF5BD0440EAF6EAC84F7
:100518007CDF56D0220EAF6EAC8477DF51D0060E4A
:10052800006E57D0000E006E5C1808E100505B1892
:1005380005E1120E5A1802E15950C00AD2E0000E25
:10054800006E5C1808E100505B1805E1250E5A188A
:1005580002E15950800ACAE0000E006E5C1808E1FA
:1005680000505B1805E14B0E5A1802E15950000A79
:10057800C2E0000E006E5C1808E100505B1805E14F
:10058800960E5A1802E15950000ABAE0000E006EA1
:100598005C1808E100505B1805E1E10E5A1802E109
:1005A8005950000AB2E05C50000A08E15B50010AA9
:1005B80005E15A50C20A02E15950000AABE0AFD730
:1005C800AC0E256E020E266E5F0E276E000E286E8C
:0405D800006A1200A3
:1005DC0021D0CF0EAF6EAC9416DF6AD0670EAF6E23
:1005EC00AC9411DF65D0CF0EAF6EAC840CDF60D055
:1005FC00670EAF6EAC8407DF5BD0440EAF6EAC847D
:10060C0002DF56D0220EAF6EAC84FDDE51D0060E4A
:10061C00006E57D0000E006E5C1808E100505B189D
:10062C0005E1120E5A1802E15950C00AD2E0000E30
:10063C00006E5C1808E100505B1805E1250E5A1895
:10064C0002E15950800ACAE0000E006E5C1808E105
:10065C0000505B1805E14B0E5A1802E15950000A84
:10066C00C2E0000E006E5C1808E100505B1805E15A
:10067C00960E5A1802E15950000ABAE0000E006EAC
:10068C005C1808E100505B1805E1E10E5A1802E114
:10069C005950000AB2E05C50000A08E15B50010AB4
:1006AC0005E15A50C20A02E15950000AABE0AFD73B
:1006BC00AC0E256E020E266E5F0E276E000E286E97
:0406CC00006A1200AE
:1006D00021D0CF0EAF6EAC949CDE6AD0670EAF6EA9
:1006E000AC9497DE65D0CF0EAF6EAC8492DE60D056
:1006F000670EAF6EAC848DDE5BD0440EAF6EAC8403
:1007000088DE56D0220EAF6EAC8483DE51D0060E4A
:10071000006E57D0000E006E5C1808E100505B18A8
:1007200005E1120E5A1802E15950C00AD2E0000E3B
:10073000006E5C1808E100505B1805E1250E5A18A0
:1007400002E15950800ACAE0000E006E5C1808E110
:1007500000505B1805E14B0E5A1802E15950000A8F
:10076000C2E0000E006E5C1808E100505B1805E165
:10077000960E5A1802E15950000ABAE0000E006EB7
:100780005C1808E100505B1805E1E10E5A1802E11F
:100790005950000AB2E05C50000A08E15B50010ABF
:1007A00005E15A50C20A02E15950000AABE0AFD746
:1007B000AC0E256E020E266E5F0E276E000E286EA2
:0407C000006A1200B9
:1007C40038D00F0120870D0E1F6F040E1E6F218578
:1007D400F2DD7DD00F012087060E1F6F820E1E6F83
:1007E4002185E9DD74D00F012087030E1F6F400EB1
:1007F4001E6F2185E0DD6BD00F012087010E1F6F76
:10080400A00E1E6F2185D7DD62D00F012087010E57
:100814001F6F150E1E6F2185CEDD59D00F01208765
:100824001F6B8A0E1E6F2185C6DD51D0060E006E29
:1008340057D0000E006E5C1808E100505B1805E10B
:10084400120E5A1802E15950C00ABBE0000E006EA5
:100854005C1808E100505B1805E1250E5A1802E106
:100864005950800AB7E0000E006E5C1808E1005091
:100874005B1805E14B0E5A1802E15950000AB3E027
:10088400000E006E5C1808E100505B1805E1960E3E
:100894005A1802E15950000AAFE0000E006E5C18CD
:1008A40008E100505B1805E1E10E5A1802E15950C5
:1008B400000AABE05C50000A08E15B50010A05E164
:1008C4005A50C20A02E15950000AA8E0AFD7C60E36
:1008D400256E020E266E5F0E276E000E286E006ACD
:0208E400120000
:0C08E60035C000F036C001F059DD1200F2
:0C08F20045C000F046C001F053DD1200CC
:1008FE0059C05CF05AC05DF05BC05EF021D0CF0EE7
:10090E00AF6EAC947FDDD9D0670EAF6EAC947ADD4E
:10091E00D4D0CF0EAF6EAC8475DDCFD0670EAF6E78
:10092E00AC8470DDCAD0440EAF6EAC846BDDC5D026
:10093E00220EAF6EAC8466DDC0D0050E006EBFD049
:10094E005CC0F6FF5DC0F7FF5EC0F8FF0900F5CF93
:10095E0001F00900F5CF02F00900F5CF03F0090010
:10096E00F5CF04F0000E006E041808E100500318D5
:10097E0005E1120E021802E10150C00AC0E05CC08F
:10098E00F6FF5DC0F7FF5EC0F8FF0900F5CF01F07E
:10099E000900F5CF02F00900F5CF03F00900F5CFFD
:1009AE0004F0000E006E041808E10050031805E173
:1009BE00250E021802E10150800AA6E05CC0F6FF87
:1009CE005DC0F7FF5EC0F8FF0900F5CF01F009002A
:1009DE00F5CF02F00900F5CF03F00900F5CF04F0D2
:1009EE00000E006E041808E10050031805E14B0ECE
:1009FE00021802E10150000A8CE05CC0F6FF5DC0F7
:100A0E00F7FF5EC0F8FF0900F5CF01F00900F5CF42
:100A1E0002F00900F5CF03F00900F5CF04F0000E47
:100A2E00006E041808E10050031805E1960E021836
:100A3E0002E10150000AD8B471D75CC0F6FF5DC068
:100A4E00F7FF5EC0F8FF0900F5CF01F00900F5CF02
:100A5E0002F00900F5CF03F00900F5CF04F0000E07
:100A6E00006E041808E10050031805E1E10E0218AB
:100A7E0002E10150000AD8B456D75CC0F6FF5DC043
:100A8E00F7FF5EC0F8FF0900F5CF01F00900F5CFC2
:100A9E0002F00900F5CF03F00900F5CF04F0045081
:100AAE00000A08E10350010A05E10250C20A02E100
:100ABE000150000AD8B43CD740D7000E006E120089
:100ACE0027C0E1FF28C0E2FF59C0E9FF5AC0EAFF84
:100ADE00EECFE6FF25C000F026C001F05BDC006A19
:020AEE001200F4
:100AF000300E5924006E000E5A20016E000E5B204D
:100B0000026E1C0E0024F66E000E0120F76E000E21
:100B10000220F86E0900F5CF49F00900F5CF4AF040
:100B20000900F5CF4BF00900F5CF4CF059C0F6FFA6
:100B30005AC0F7FF5BC0F8FF0900F5CF4DF0090080
:100B4000F5CF4EF00900F5CF4FF00900F5CF50F08A
:100B5000040E5924F66E000E5A20F76E000E5B202C
:100B6000F86E0900F5CF3DF00900F5CF3EF0090021
:100B7000F5CF3FF00900F5CF40F0180E5924F66E7E
:100B8000000E5A20F76E000E5B20F86E0900F5CFBC
:100B900041F00900F5CF42F00900F5CF43F009001C
:060BA000F5CF44F0120045
:100BA60059C05CF05AC05DF05BC05EF021D0CF0E3C
:100BB600AF6EAC942BDCD9D0670EAF6EAC9426DC4E
:100BC600D4D0CF0EAF6EAC8421DCCFD0670EAF6E23
:100BD600AC841CDCCAD0440EAF6EAC8417DCC5D026
:100BE600220EAF6EAC8412DCC0D0050E006EBFD0F4
:100BF6005CC0F6FF5DC0F7FF5EC0F8FF0900F5CFE9
:100C060001F00900F5CF02F00900F5CF03F0090065
:100C1600F5CF04F0000E006E041808E1005003182A
:100C260005E1120E021802E10150C00AC0E05CC0E4
:100C3600F6FF5DC0F7FF5EC0F8FF0900F5CF01F0D3
:100C46000900F5CF02F00900F5CF03F00900F5CF52
:100C560004F0000E006E041808E10050031805E1C8
:100C6600250E021802E10150800AA6E05CC0F6FFDC
:100C76005DC0F7FF5EC0F8FF0900F5CF01F009007F
:100C8600F5CF02F00900F5CF03F00900F5CF04F027
:100C9600000E006E041808E10050031805E14B0E23
:100CA600021802E10150000A8CE05CC0F6FF5DC04C
:100CB600F7FF5EC0F8FF0900F5CF01F00900F5CF98
:100CC60002F00900F5CF03F00900F5CF04F0000E9D
:100CD600006E041808E10050031805E1960E02188C
:100CE60002E10150000AD8B471D75CC0F6FF5DC0BE
:100CF600F7FF5EC0F8FF0900F5CF01F00900F5CF58
:100D060002F00900F5CF03F00900F5CF04F0000E5C
:100D1600006E041808E10050031805E1E10E021800
:100D260002E10150000AD8B456D75CC0F6FF5DC098
:100D3600F7FF5EC0F8FF0900F5CF01F00900F5CF17
:100D460002F00900F5CF03F00900F5CF04F00450D6
:100D5600000A08E10350010A05E10250C20A02E155
:100D66000150000AD8B43CD740D7000E006E1200DE
:100D76001CD053C059F054C05AF055C05BF0BCDDCE
:100D86001ED053C059F054C05AF055C05BF008DF6E
:100D960016D053C059F054C05AF055C05BF071ECF0
:100DA60002F00DD0010E006E0AD05250000AE1E0AA
:100DB6005250010AE6E05250020AEBE0F3D7120065
:100DC6002CD053C059F054C05AF055C05BF056C0F1
:100DD6005CF001DC2FD053C059F054C05AF055C016
:100DE6005BF056C05CF071DC25D053C059F054C09E
:100DF6005AF055C05BF056C05CF0E1DC1BD053C026
:100E060059F054C05AF055C05BF056C05CF074EC13
:100E160002F010D0010E006E0DD05250000AD1E043
:100E26005250010AD8E05250020ADFE05250100A2E
:060E3600E6E0F0D7120017
:040E3C0054DD12006F
:040E400058DD120067
:100E440052C055F053C056F00D0E576E0A0E586E30
:100E540031D055C059F056C05AF037DE35D055C0A0
:100E6400E9FF56C0EAFFEE5208E055C059F056C0FB
:100E74005AF02BDE554A562AF2D726D055C0E9FF40
:100E840056C0EAFFEE5208E055C059F056C05AF079
:100E94001CDE554A562AF2D7570E596E000E5A6E6A
:100EA40014DE580E596E000E5A6E0FDE0DD0060E6B
:100EB400006E0BD05450000ACCE05450010ACFE02D
:0C0EC4005450020ADBE0F3D7006A120071
:100ED00055C059F056C05AF057C05BF034EC02F0E0
:100EE00052C059F053C05AF054C05BF001DE1200FA
:100EF000526A440E536E100E546E000E556E3BDF58
:100F0000020E526E000E536E4B0E546E000E556E56
:100F1000566E59DF090E0B6E1E0E0C6EE40E0D6E32
:100F20000D2EFED70C2EFCD70B2EFAD70000120088
:100F30000900F5CFE6FF0006FBE10106F9E112002A
:100F4000D80E526E0F0E536E000E546E380E556E44
:100F5000100E566E000E576EBBDF150E526E000E51
:100F6000536E020E546E6EDF090E0B6E1E0E0C6E6B
:100F7000E40E0D6E0D2EFED70C2EFCD70B2EFAD7DD
:040F8000000012005B
:100F84005DDF010E001809E157DF00C051F0510E7A
:0C0F9400526E000E536E546A53DF1200C0
:100FA000490E156E6E0E166E690E176E740E186E63
:100FB000690E196E610E1A6E6C0E1B6E690E1C6E38
:100FC0007A0E1D6E650E1E6E640E1F6E206A90DF17
:080FD000B7DFD8DFFED7FFD721
:100FD800E2025F005A035F00EE025F0070025F00EA
:100FE800D6025F0058025F00BA025F0064025F0029
:100FF8007C025F0094025F0072035F002E025F00B4
:101008001C000000940000009E0000004400000046
:101018004E000000FA010000800000006C00000093
:1010280046010000F0010000E60100007600000023
:0C103800AC025F00FC0000000E01000094
:04104400004B00005D
:020000040030CA
:0E00000015137F7CF98B91FFFFC0FFE0FF40DE
:00000001FF
